{
  "_format": "hh-sol-artifact-1",
  "contractName": "CryptoGasStationNFP",
  "sourceName": "contracts/CryptoGasStationNFP.sol",
  "abi": [
    {
      "inputs": [
        {
          "internalType": "string",
          "name": "_initialBaseURI",
          "type": "string"
        },
        {
          "internalType": "contract ERC20",
          "name": "_usdc",
          "type": "address"
        }
      ],
      "stateMutability": "nonpayable",
      "type": "constructor"
    },
    {
      "anonymous": false,
      "inputs": [
        {
          "indexed": true,
          "internalType": "address",
          "name": "owner",
          "type": "address"
        },
        {
          "indexed": true,
          "internalType": "address",
          "name": "approved",
          "type": "address"
        },
        {
          "indexed": true,
          "internalType": "uint256",
          "name": "tokenId",
          "type": "uint256"
        }
      ],
      "name": "Approval",
      "type": "event"
    },
    {
      "anonymous": false,
      "inputs": [
        {
          "indexed": true,
          "internalType": "address",
          "name": "owner",
          "type": "address"
        },
        {
          "indexed": true,
          "internalType": "address",
          "name": "operator",
          "type": "address"
        },
        {
          "indexed": false,
          "internalType": "bool",
          "name": "approved",
          "type": "bool"
        }
      ],
      "name": "ApprovalForAll",
      "type": "event"
    },
    {
      "anonymous": false,
      "inputs": [
        {
          "indexed": false,
          "internalType": "address",
          "name": "_owner",
          "type": "address"
        },
        {
          "indexed": false,
          "internalType": "uint256",
          "name": "_tokenId",
          "type": "uint256"
        },
        {
          "indexed": false,
          "internalType": "uint8",
          "name": "_rarity",
          "type": "uint8"
        }
      ],
      "name": "BuyPatron",
      "type": "event"
    },
    {
      "anonymous": false,
      "inputs": [
        {
          "indexed": true,
          "internalType": "address",
          "name": "previousOwner",
          "type": "address"
        },
        {
          "indexed": true,
          "internalType": "address",
          "name": "newOwner",
          "type": "address"
        }
      ],
      "name": "OwnershipTransferred",
      "type": "event"
    },
    {
      "anonymous": false,
      "inputs": [
        {
          "indexed": true,
          "internalType": "address",
          "name": "from",
          "type": "address"
        },
        {
          "indexed": true,
          "internalType": "address",
          "name": "to",
          "type": "address"
        },
        {
          "indexed": true,
          "internalType": "uint256",
          "name": "tokenId",
          "type": "uint256"
        }
      ],
      "name": "Transfer",
      "type": "event"
    },
    {
      "inputs": [],
      "name": "COMMON",
      "outputs": [
        {
          "internalType": "uint8",
          "name": "",
          "type": "uint8"
        }
      ],
      "stateMutability": "view",
      "type": "function"
    },
    {
      "inputs": [],
      "name": "LEGENDARY",
      "outputs": [
        {
          "internalType": "uint8",
          "name": "",
          "type": "uint8"
        }
      ],
      "stateMutability": "view",
      "type": "function"
    },
    {
      "inputs": [],
      "name": "RARE",
      "outputs": [
        {
          "internalType": "uint8",
          "name": "",
          "type": "uint8"
        }
      ],
      "stateMutability": "view",
      "type": "function"
    },
    {
      "inputs": [
        {
          "internalType": "uint8",
          "name": "",
          "type": "uint8"
        }
      ],
      "name": "amountMinted",
      "outputs": [
        {
          "internalType": "uint16",
          "name": "",
          "type": "uint16"
        }
      ],
      "stateMutability": "view",
      "type": "function"
    },
    {
      "inputs": [
        {
          "internalType": "uint8",
          "name": "",
          "type": "uint8"
        }
      ],
      "name": "amountTotal",
      "outputs": [
        {
          "internalType": "uint16",
          "name": "",
          "type": "uint16"
        }
      ],
      "stateMutability": "view",
      "type": "function"
    },
    {
      "inputs": [
        {
          "internalType": "address",
          "name": "to",
          "type": "address"
        },
        {
          "internalType": "uint256",
          "name": "tokenId",
          "type": "uint256"
        }
      ],
      "name": "approve",
      "outputs": [],
      "stateMutability": "nonpayable",
      "type": "function"
    },
    {
      "inputs": [
        {
          "internalType": "address",
          "name": "owner",
          "type": "address"
        }
      ],
      "name": "balanceOf",
      "outputs": [
        {
          "internalType": "uint256",
          "name": "",
          "type": "uint256"
        }
      ],
      "stateMutability": "view",
      "type": "function"
    },
    {
      "inputs": [],
      "name": "baseURI",
      "outputs": [
        {
          "internalType": "string",
          "name": "",
          "type": "string"
        }
      ],
      "stateMutability": "view",
      "type": "function"
    },
    {
      "inputs": [
        {
          "internalType": "uint8",
          "name": "_rarity",
          "type": "uint8"
        }
      ],
      "name": "buyPatron",
      "outputs": [
        {
          "internalType": "uint256",
          "name": "",
          "type": "uint256"
        }
      ],
      "stateMutability": "payable",
      "type": "function"
    },
    {
      "inputs": [
        {
          "internalType": "uint256",
          "name": "tokenId",
          "type": "uint256"
        }
      ],
      "name": "getApproved",
      "outputs": [
        {
          "internalType": "address",
          "name": "",
          "type": "address"
        }
      ],
      "stateMutability": "view",
      "type": "function"
    },
    {
      "inputs": [
        {
          "internalType": "address",
          "name": "_owner",
          "type": "address"
        }
      ],
      "name": "getNFPsOfOwner",
      "outputs": [
        {
          "internalType": "uint256[]",
          "name": "",
          "type": "uint256[]"
        }
      ],
      "stateMutability": "view",
      "type": "function"
    },
    {
      "inputs": [
        {
          "internalType": "address",
          "name": "owner",
          "type": "address"
        },
        {
          "internalType": "address",
          "name": "operator",
          "type": "address"
        }
      ],
      "name": "isApprovedForAll",
      "outputs": [
        {
          "internalType": "bool",
          "name": "",
          "type": "bool"
        }
      ],
      "stateMutability": "view",
      "type": "function"
    },
    {
      "inputs": [
        {
          "internalType": "uint8",
          "name": "_rarity",
          "type": "uint8"
        },
        {
          "internalType": "address",
          "name": "_to",
          "type": "address"
        }
      ],
      "name": "mintpatron",
      "outputs": [
        {
          "internalType": "uint256",
          "name": "",
          "type": "uint256"
        }
      ],
      "stateMutability": "nonpayable",
      "type": "function"
    },
    {
      "inputs": [],
      "name": "name",
      "outputs": [
        {
          "internalType": "string",
          "name": "",
          "type": "string"
        }
      ],
      "stateMutability": "view",
      "type": "function"
    },
    {
      "inputs": [],
      "name": "owner",
      "outputs": [
        {
          "internalType": "address",
          "name": "",
          "type": "address"
        }
      ],
      "stateMutability": "view",
      "type": "function"
    },
    {
      "inputs": [
        {
          "internalType": "uint256",
          "name": "tokenId",
          "type": "uint256"
        }
      ],
      "name": "ownerOf",
      "outputs": [
        {
          "internalType": "address",
          "name": "",
          "type": "address"
        }
      ],
      "stateMutability": "view",
      "type": "function"
    },
    {
      "inputs": [
        {
          "internalType": "uint256",
          "name": "",
          "type": "uint256"
        }
      ],
      "name": "patronRarity",
      "outputs": [
        {
          "internalType": "uint8",
          "name": "",
          "type": "uint8"
        }
      ],
      "stateMutability": "view",
      "type": "function"
    },
    {
      "inputs": [
        {
          "internalType": "uint8",
          "name": "",
          "type": "uint8"
        }
      ],
      "name": "patronRarityPrice",
      "outputs": [
        {
          "internalType": "uint256",
          "name": "",
          "type": "uint256"
        }
      ],
      "stateMutability": "view",
      "type": "function"
    },
    {
      "inputs": [
        {
          "internalType": "uint256",
          "name": "",
          "type": "uint256"
        }
      ],
      "name": "patronTokenIdInRarity",
      "outputs": [
        {
          "internalType": "uint16",
          "name": "",
          "type": "uint16"
        }
      ],
      "stateMutability": "view",
      "type": "function"
    },
    {
      "inputs": [],
      "name": "renounceOwnership",
      "outputs": [],
      "stateMutability": "nonpayable",
      "type": "function"
    },
    {
      "inputs": [
        {
          "internalType": "address",
          "name": "from",
          "type": "address"
        },
        {
          "internalType": "address",
          "name": "to",
          "type": "address"
        },
        {
          "internalType": "uint256",
          "name": "tokenId",
          "type": "uint256"
        }
      ],
      "name": "safeTransferFrom",
      "outputs": [],
      "stateMutability": "nonpayable",
      "type": "function"
    },
    {
      "inputs": [
        {
          "internalType": "address",
          "name": "from",
          "type": "address"
        },
        {
          "internalType": "address",
          "name": "to",
          "type": "address"
        },
        {
          "internalType": "uint256",
          "name": "tokenId",
          "type": "uint256"
        },
        {
          "internalType": "bytes",
          "name": "_data",
          "type": "bytes"
        }
      ],
      "name": "safeTransferFrom",
      "outputs": [],
      "stateMutability": "nonpayable",
      "type": "function"
    },
    {
      "inputs": [
        {
          "internalType": "uint8",
          "name": "_rarity",
          "type": "uint8"
        },
        {
          "internalType": "uint16",
          "name": "_amountTotal",
          "type": "uint16"
        }
      ],
      "name": "setAmountTotal",
      "outputs": [],
      "stateMutability": "nonpayable",
      "type": "function"
    },
    {
      "inputs": [
        {
          "internalType": "address",
          "name": "operator",
          "type": "address"
        },
        {
          "internalType": "bool",
          "name": "approved",
          "type": "bool"
        }
      ],
      "name": "setApprovalForAll",
      "outputs": [],
      "stateMutability": "nonpayable",
      "type": "function"
    },
    {
      "inputs": [
        {
          "internalType": "string",
          "name": "_newBaseURI",
          "type": "string"
        }
      ],
      "name": "setBaseURI",
      "outputs": [],
      "stateMutability": "nonpayable",
      "type": "function"
    },
    {
      "inputs": [
        {
          "internalType": "bytes4",
          "name": "interfaceId",
          "type": "bytes4"
        }
      ],
      "name": "supportsInterface",
      "outputs": [
        {
          "internalType": "bool",
          "name": "",
          "type": "bool"
        }
      ],
      "stateMutability": "view",
      "type": "function"
    },
    {
      "inputs": [],
      "name": "symbol",
      "outputs": [
        {
          "internalType": "string",
          "name": "",
          "type": "string"
        }
      ],
      "stateMutability": "view",
      "type": "function"
    },
    {
      "inputs": [
        {
          "internalType": "uint256",
          "name": "index",
          "type": "uint256"
        }
      ],
      "name": "tokenByIndex",
      "outputs": [
        {
          "internalType": "uint256",
          "name": "",
          "type": "uint256"
        }
      ],
      "stateMutability": "view",
      "type": "function"
    },
    {
      "inputs": [],
      "name": "tokenId",
      "outputs": [
        {
          "internalType": "uint256",
          "name": "",
          "type": "uint256"
        }
      ],
      "stateMutability": "view",
      "type": "function"
    },
    {
      "inputs": [
        {
          "internalType": "address",
          "name": "owner",
          "type": "address"
        },
        {
          "internalType": "uint256",
          "name": "index",
          "type": "uint256"
        }
      ],
      "name": "tokenOfOwnerByIndex",
      "outputs": [
        {
          "internalType": "uint256",
          "name": "",
          "type": "uint256"
        }
      ],
      "stateMutability": "view",
      "type": "function"
    },
    {
      "inputs": [
        {
          "internalType": "uint256",
          "name": "_tokenId",
          "type": "uint256"
        }
      ],
      "name": "tokenURI",
      "outputs": [
        {
          "internalType": "string",
          "name": "",
          "type": "string"
        }
      ],
      "stateMutability": "view",
      "type": "function"
    },
    {
      "inputs": [],
      "name": "totalSupply",
      "outputs": [
        {
          "internalType": "uint256",
          "name": "",
          "type": "uint256"
        }
      ],
      "stateMutability": "view",
      "type": "function"
    },
    {
      "inputs": [
        {
          "internalType": "address",
          "name": "from",
          "type": "address"
        },
        {
          "internalType": "address",
          "name": "to",
          "type": "address"
        },
        {
          "internalType": "uint256",
          "name": "tokenId",
          "type": "uint256"
        }
      ],
      "name": "transferFrom",
      "outputs": [],
      "stateMutability": "nonpayable",
      "type": "function"
    },
    {
      "inputs": [
        {
          "internalType": "address",
          "name": "newOwner",
          "type": "address"
        }
      ],
      "name": "transferOwnership",
      "outputs": [],
      "stateMutability": "nonpayable",
      "type": "function"
    }
  ],
  "bytecode": "0x6080604052600a805462ffffff60a01b19166203020160a01b17905560006010553480156200002d57600080fd5b50604051620041c2380380620041c283398101604081905262000050916200037a565b604080518082018252601081526f4761732053746174696f6e204e46507360801b60208083019182528351808501909452600384526204e46560ec1b908401528151919291620000a391600091620002b7565b508051620000b9906001906020840190620002b7565b505050620000d6620000d06200013a60201b60201c565b6200013e565b8151620000eb90600f906020850190620002b7565b50601280546001600160a01b0319166001600160a01b0383161790556200011660016101f462000190565b620001246002602662000190565b620001326003600c62000190565b5050620004b8565b3390565b600a80546001600160a01b038381166001600160a01b0319831681179093556040519116919082907f8be0079c531659141344cd1fd0a4f28419497f9722a3daafe3b4186f6b6457e090600090a35050565b818060ff166000108015620001a9575060038160ff1611155b620001fb5760405162461bcd60e51b815260206004820152601460248201527f72617269747920646f65736e277420657869737400000000000000000000000060448201526064015b60405180910390fd5b60ff83166000908152600b602052604090205461ffff90811690831610156200028d5760405162461bcd60e51b815260206004820152603860248201527f4e4650733a206d696e746564204e46507320616d6f756e74206973206c61726760448201527f6572207468616e207468697320746f74616c206c696d697400000000000000006064820152608401620001f2565b5060ff919091166000908152600c60205260409020805461ffff191661ffff909216919091179055565b828054620002c59062000465565b90600052602060002090601f016020900481019282620002e9576000855562000334565b82601f106200030457805160ff191683800117855562000334565b8280016001018555821562000334579182015b828111156200033457825182559160200191906001019062000317565b506200034292915062000346565b5090565b5b8082111562000342576000815560010162000347565b80516001600160a01b03811681146200037557600080fd5b919050565b600080604083850312156200038d578182fd5b82516001600160401b0380821115620003a4578384fd5b818501915085601f830112620003b8578384fd5b815181811115620003cd57620003cd620004a2565b604051601f8201601f19908116603f01168101908382118183101715620003f857620003f8620004a2565b8160405282815260209350888484870101111562000414578687fd5b8691505b8282101562000437578482018401518183018501529083019062000418565b828211156200044857868484830101525b95506200045a9150508582016200035d565b925050509250929050565b600181811c908216806200047a57607f821691505b602082108114156200049c57634e487b7160e01b600052602260045260246000fd5b50919050565b634e487b7160e01b600052604160045260246000fd5b613cfa80620004c86000396000f3fe6080604052600436106102195760003560e01c80636c0360eb1161011d578063a22cb465116100b0578063e140d1e11161007f578063f19f197a11610064578063f19f197a146106e5578063f2fde38b14610716578063f966cc0a1461073657600080fd5b8063e140d1e11461065b578063e985e9c51461068f57600080fd5b8063a22cb465146105db578063a34961d5146105fb578063b88d4fde1461061b578063c87b56dd1461063b57600080fd5b80638242de3c116100ec5780638242de3c1461053a578063858dfed91461056b5780638da5cb5b1461059b57806395d89b41146105c657600080fd5b80636c0360eb146104bd57806370a08231146104d2578063715018a6146104f2578063816171c01461050757600080fd5b806323b872dd116101b057806346e6a86c1161017f57806355f804b31161016457806355f804b3146104395780635ccaa7df146104595780636352211e1461049d57600080fd5b806346e6a86c146103d55780634f6ccce71461041957600080fd5b806323b872dd146103625780632f745c591461038257806334a786f9146103a257806342842e0e146103b557600080fd5b80630c4f7eee116101ec5780630c4f7eee146102dc5780630e86215c1461030a57806317d70f7c1461033757806318160ddd1461034d57600080fd5b806301ffc9a71461021e57806306fdde0314610253578063081812fc14610275578063095ea7b3146102ba575b600080fd5b34801561022a57600080fd5b5061023e61023936600461365a565b610763565b60405190151581526020015b60405180910390f35b34801561025f57600080fd5b506102686107bf565b60405161024a9190613942565b34801561028157600080fd5b506102956102903660046136d8565b610851565b60405173ffffffffffffffffffffffffffffffffffffffff909116815260200161024a565b3480156102c657600080fd5b506102da6102d5366004613615565b610930565b005b3480156102e857600080fd5b506102fc6102f7366004613728565b610abd565b60405190815260200161024a565b34801561031657600080fd5b5061032a6103253660046134df565b610d3e565b60405161024a91906138fe565b34801561034357600080fd5b506102fc60105481565b34801561035957600080fd5b506008546102fc565b34801561036e57600080fd5b506102da61037d36600461352b565b610e4b565b34801561038e57600080fd5b506102fc61039d366004613615565b610eec565b6102fc6103b03660046136f0565b610fbb565b3480156103c157600080fd5b506102da6103d036600461352b565b611249565b3480156103e157600080fd5b50600a546104079074010000000000000000000000000000000000000000900460ff1681565b60405160ff909116815260200161024a565b34801561042557600080fd5b506102fc6104343660046136d8565b611264565b34801561044557600080fd5b506102da610454366004613692565b611349565b34801561046557600080fd5b5061048a6104743660046136f0565b600c6020526000908152604090205461ffff1681565b60405161ffff909116815260200161024a565b3480156104a957600080fd5b506102956104b83660046136d8565b6113e1565b3480156104c957600080fd5b50610268611493565b3480156104de57600080fd5b506102fc6104ed3660046134df565b611521565b3480156104fe57600080fd5b506102da6115ef565b34801561051357600080fd5b50600a54610407907501000000000000000000000000000000000000000000900460ff1681565b34801561054657600080fd5b5061048a6105553660046136d8565b600e6020526000908152604090205461ffff1681565b34801561057757600080fd5b506104076105863660046136d8565b600d6020526000908152604090205460ff1681565b3480156105a757600080fd5b50600a5473ffffffffffffffffffffffffffffffffffffffff16610295565b3480156105d257600080fd5b5061026861167c565b3480156105e757600080fd5b506102da6105f63660046135df565b61168b565b34801561060757600080fd5b506102da610616366004613745565b6117a2565b34801561062757600080fd5b506102da610636366004613566565b61182d565b34801561064757600080fd5b506102686106563660046136d8565b6118d5565b34801561066757600080fd5b50600a5461040790760100000000000000000000000000000000000000000000900460ff1681565b34801561069b57600080fd5b5061023e6106aa3660046134f9565b73ffffffffffffffffffffffffffffffffffffffff918216600090815260056020908152604080832093909416825291909152205460ff1690565b3480156106f157600080fd5b5061048a6107003660046136f0565b600b6020526000908152604090205461ffff1681565b34801561072257600080fd5b506102da6107313660046134df565b6119bd565b34801561074257600080fd5b506102fc6107513660046136f0565b60116020526000908152604090205481565b60007fffffffff0000000000000000000000000000000000000000000000000000000082167f780e9d630000000000000000000000000000000000000000000000000000000014806107b957506107b982611aed565b92915050565b6060600080546107ce90613b51565b80601f01602080910402602001604051908101604052809291908181526020018280546107fa90613b51565b80156108475780601f1061081c57610100808354040283529160200191610847565b820191906000526020600020905b81548152906001019060200180831161082a57829003601f168201915b5050505050905090565b60008181526002602052604081205473ffffffffffffffffffffffffffffffffffffffff16610907576040517f08c379a000000000000000000000000000000000000000000000000000000000815260206004820152602c60248201527f4552433732313a20617070726f76656420717565727920666f72206e6f6e657860448201527f697374656e7420746f6b656e000000000000000000000000000000000000000060648201526084015b60405180910390fd5b5060009081526004602052604090205473ffffffffffffffffffffffffffffffffffffffff1690565b600061093b826113e1565b90508073ffffffffffffffffffffffffffffffffffffffff168373ffffffffffffffffffffffffffffffffffffffff1614156109f9576040517f08c379a000000000000000000000000000000000000000000000000000000000815260206004820152602160248201527f4552433732313a20617070726f76616c20746f2063757272656e74206f776e6560448201527f720000000000000000000000000000000000000000000000000000000000000060648201526084016108fe565b3373ffffffffffffffffffffffffffffffffffffffff82161480610a225750610a2281336106aa565b610aae576040517f08c379a000000000000000000000000000000000000000000000000000000000815260206004820152603860248201527f4552433732313a20617070726f76652063616c6c6572206973206e6f74206f7760448201527f6e6572206e6f7220617070726f76656420666f7220616c6c000000000000000060648201526084016108fe565b610ab88383611bd0565b505050565b600a5460009073ffffffffffffffffffffffffffffffffffffffff163314610b41576040517f08c379a000000000000000000000000000000000000000000000000000000000815260206004820181905260248201527f4f776e61626c653a2063616c6c6572206973206e6f7420746865206f776e657260448201526064016108fe565b828060ff166000108015610b59575060038160ff1611155b610bbf576040517f08c379a000000000000000000000000000000000000000000000000000000000815260206004820152601460248201527f72617269747920646f65736e277420657869737400000000000000000000000060448201526064016108fe565b60ff84166000908152600b6020908152604080832054600c9092529091205461ffff9182169116808210610c75576040517f08c379a000000000000000000000000000000000000000000000000000000000815260206004820152603160248201527f506174726f6e4d61726b65743a20616c6c20706174726f6e7320696e2074686960448201527f73207261726974792061726520736f6c6400000000000000000000000000000060648201526084016108fe565b601054610c83906001611c70565b601055610c91826001613955565b60ff87166000818152600b60209081526040808320805461ffff87167fffffffffffffffffffffffffffffffffffffffffffffffffffffffffffff00009182168117909255601080548652600d855283862080547fffffffffffffffffffffffffffffffffffffffffffffffffffffffffffffff001690971790965585548552600e90935292208054909116909117905554909250610d31908690611c7c565b5050601054949350505050565b60606000610d4b83611521565b905080610d6c5760408051600080825260208201909252905b509392505050565b60008167ffffffffffffffff811115610dae577f4e487b7100000000000000000000000000000000000000000000000000000000600052604160045260246000fd5b604051908082528060200260200182016040528015610dd7578160200160208202803683370190505b50905060005b82811015610d6457610def8582610eec565b828281518110610e28577f4e487b7100000000000000000000000000000000000000000000000000000000600052603260045260246000fd5b602090810291909101015280610e3d81613b9f565b915050610ddd565b50919050565b610e553382611e4a565b610ee1576040517f08c379a000000000000000000000000000000000000000000000000000000000815260206004820152603160248201527f4552433732313a207472616e736665722063616c6c6572206973206e6f74206f60448201527f776e6572206e6f7220617070726f76656400000000000000000000000000000060648201526084016108fe565b610ab8838383611fba565b6000610ef783611521565b8210610f85576040517f08c379a000000000000000000000000000000000000000000000000000000000815260206004820152602b60248201527f455243373231456e756d657261626c653a206f776e657220696e646578206f7560448201527f74206f6620626f756e647300000000000000000000000000000000000000000060648201526084016108fe565b5073ffffffffffffffffffffffffffffffffffffffff919091166000908152600660209081526040808320938352929052205490565b6000818060ff166000108015610fd5575060038160ff1611155b61103b576040517f08c379a000000000000000000000000000000000000000000000000000000000815260206004820152601460248201527f72617269747920646f65736e277420657869737400000000000000000000000060448201526064016108fe565b60ff83166000908152600b6020908152604080832054600c909252909120543491339161ffff91821691168082106110f5576040517f08c379a000000000000000000000000000000000000000000000000000000000815260206004820152603160248201527f506174726f6e4d61726b65743a20616c6c20706174726f6e7320696e2074686960448201527f73207261726974792061726520736f6c6400000000000000000000000000000060648201526084016108fe565b61112433306111038a61222c565b60125473ffffffffffffffffffffffffffffffffffffffff16929190612747565b601054611132906001611c70565b601055611140826001613955565b60ff88166000818152600b60209081526040808320805461ffff87167fffffffffffffffffffffffffffffffffffffffffffffffffffffffffffff00009182168117909255601080548652600d855283862080547fffffffffffffffffffffffffffffffffffffffffffffffffffffffffffffff001690971790965585548552600e909352922080549091169091179055549092506111e0908490611c7c565b6010546040805173ffffffffffffffffffffffffffffffffffffffff86168152602081019290925260ff891682820152517f83f8b66ba2a119c3a1024908e547925c78057ba46ed26d60394747cb0c4ce75d9181900360600190a1505060105495945050505050565b610ab88383836040518060200160405280600081525061182d565b600061126f60085490565b82106112fd576040517f08c379a000000000000000000000000000000000000000000000000000000000815260206004820152602c60248201527f455243373231456e756d657261626c653a20676c6f62616c20696e646578206f60448201527f7574206f6620626f756e6473000000000000000000000000000000000000000060648201526084016108fe565b60088281548110611337577f4e487b7100000000000000000000000000000000000000000000000000000000600052603260045260246000fd5b90600052602060002001549050919050565b600a5473ffffffffffffffffffffffffffffffffffffffff1633146113ca576040517f08c379a000000000000000000000000000000000000000000000000000000000815260206004820181905260248201527f4f776e61626c653a2063616c6c6572206973206e6f7420746865206f776e657260448201526064016108fe565b80516113dd90600f906020840190613389565b5050565b60008181526002602052604081205473ffffffffffffffffffffffffffffffffffffffff16806107b9576040517f08c379a000000000000000000000000000000000000000000000000000000000815260206004820152602960248201527f4552433732313a206f776e657220717565727920666f72206e6f6e657869737460448201527f656e7420746f6b656e000000000000000000000000000000000000000000000060648201526084016108fe565b600f80546114a090613b51565b80601f01602080910402602001604051908101604052809291908181526020018280546114cc90613b51565b80156115195780601f106114ee57610100808354040283529160200191611519565b820191906000526020600020905b8154815290600101906020018083116114fc57829003601f168201915b505050505081565b600073ffffffffffffffffffffffffffffffffffffffff82166115c6576040517f08c379a000000000000000000000000000000000000000000000000000000000815260206004820152602a60248201527f4552433732313a2062616c616e636520717565727920666f7220746865207a6560448201527f726f20616464726573730000000000000000000000000000000000000000000060648201526084016108fe565b5073ffffffffffffffffffffffffffffffffffffffff1660009081526003602052604090205490565b600a5473ffffffffffffffffffffffffffffffffffffffff163314611670576040517f08c379a000000000000000000000000000000000000000000000000000000000815260206004820181905260248201527f4f776e61626c653a2063616c6c6572206973206e6f7420746865206f776e657260448201526064016108fe565b61167a60006127dc565b565b6060600180546107ce90613b51565b73ffffffffffffffffffffffffffffffffffffffff821633141561170b576040517f08c379a000000000000000000000000000000000000000000000000000000000815260206004820152601960248201527f4552433732313a20617070726f766520746f2063616c6c65720000000000000060448201526064016108fe565b33600081815260056020908152604080832073ffffffffffffffffffffffffffffffffffffffff87168085529083529281902080547fffffffffffffffffffffffffffffffffffffffffffffffffffffffffffffff001686151590811790915590519081529192917f17307eab39ab6107e8899845ad3d59bd9653f200f220920489ca2b5937696c31910160405180910390a35050565b600a5473ffffffffffffffffffffffffffffffffffffffff163314611823576040517f08c379a000000000000000000000000000000000000000000000000000000000815260206004820181905260248201527f4f776e61626c653a2063616c6c6572206973206e6f7420746865206f776e657260448201526064016108fe565b6113dd8282612853565b6118373383611e4a565b6118c3576040517f08c379a000000000000000000000000000000000000000000000000000000000815260206004820152603160248201527f4552433732313a207472616e736665722063616c6c6572206973206e6f74206f60448201527f776e6572206e6f7220617070726f76656400000000000000000000000000000060648201526084016108fe565b6118cf848484846129c2565b50505050565b606060006118e1612a65565b60008481526002602052604090205490915073ffffffffffffffffffffffffffffffffffffffff161561198e57600081511161192c5760405180602001604052806000815250611987565b6000838152600d602052604090205481906119499060ff16612a74565b6000858152600e60205260409020546119659061ffff16612a74565b604051602001611977939291906137de565b6040516020818303038152906040525b9392505050565b60008151116119ac5760405180602001604052806000815250611987565b806040516020016119779190613874565b600a5473ffffffffffffffffffffffffffffffffffffffff163314611a3e576040517f08c379a000000000000000000000000000000000000000000000000000000000815260206004820181905260248201527f4f776e61626c653a2063616c6c6572206973206e6f7420746865206f776e657260448201526064016108fe565b73ffffffffffffffffffffffffffffffffffffffff8116611ae1576040517f08c379a000000000000000000000000000000000000000000000000000000000815260206004820152602660248201527f4f776e61626c653a206e6577206f776e657220697320746865207a65726f206160448201527f646472657373000000000000000000000000000000000000000000000000000060648201526084016108fe565b611aea816127dc565b50565b60007fffffffff0000000000000000000000000000000000000000000000000000000082167f80ac58cd000000000000000000000000000000000000000000000000000000001480611b8057507fffffffff0000000000000000000000000000000000000000000000000000000082167f5b5e139f00000000000000000000000000000000000000000000000000000000145b806107b957507f01ffc9a7000000000000000000000000000000000000000000000000000000007fffffffff000000000000000000000000000000000000000000000000000000008316146107b9565b600081815260046020526040902080547fffffffffffffffffffffffff00000000000000000000000000000000000000001673ffffffffffffffffffffffffffffffffffffffff84169081179091558190611c2a826113e1565b73ffffffffffffffffffffffffffffffffffffffff167f8c5be1e5ebec7d5bd14f71427d1e84f3dd0314c0f7b2291e5b200ac8c7c3b92560405160405180910390a45050565b6000611987828461397b565b73ffffffffffffffffffffffffffffffffffffffff8216611cf9576040517f08c379a000000000000000000000000000000000000000000000000000000000815260206004820181905260248201527f4552433732313a206d696e7420746f20746865207a65726f206164647265737360448201526064016108fe565b60008181526002602052604090205473ffffffffffffffffffffffffffffffffffffffff1615611d85576040517f08c379a000000000000000000000000000000000000000000000000000000000815260206004820152601c60248201527f4552433732313a20746f6b656e20616c7265616479206d696e7465640000000060448201526064016108fe565b611d9160008383612bf4565b73ffffffffffffffffffffffffffffffffffffffff82166000908152600360205260408120805460019290611dc790849061397b565b909155505060008181526002602052604080822080547fffffffffffffffffffffffff00000000000000000000000000000000000000001673ffffffffffffffffffffffffffffffffffffffff861690811790915590518392907fddf252ad1be2c89b69c2b068fc378daa952ba7f163c4a11628f55a4df523b3ef908290a45050565b60008181526002602052604081205473ffffffffffffffffffffffffffffffffffffffff16611efb576040517f08c379a000000000000000000000000000000000000000000000000000000000815260206004820152602c60248201527f4552433732313a206f70657261746f7220717565727920666f72206e6f6e657860448201527f697374656e7420746f6b656e000000000000000000000000000000000000000060648201526084016108fe565b6000611f06836113e1565b90508073ffffffffffffffffffffffffffffffffffffffff168473ffffffffffffffffffffffffffffffffffffffff161480611f7557508373ffffffffffffffffffffffffffffffffffffffff16611f5d84610851565b73ffffffffffffffffffffffffffffffffffffffff16145b80611fb2575073ffffffffffffffffffffffffffffffffffffffff80821660009081526005602090815260408083209388168352929052205460ff165b949350505050565b8273ffffffffffffffffffffffffffffffffffffffff16611fda826113e1565b73ffffffffffffffffffffffffffffffffffffffff161461207d576040517f08c379a000000000000000000000000000000000000000000000000000000000815260206004820152602960248201527f4552433732313a207472616e73666572206f6620746f6b656e2074686174206960448201527f73206e6f74206f776e000000000000000000000000000000000000000000000060648201526084016108fe565b73ffffffffffffffffffffffffffffffffffffffff821661211f576040517f08c379a0000000000000000000000000000000000000000000000000000000008152602060048201526024808201527f4552433732313a207472616e7366657220746f20746865207a65726f2061646460448201527f726573730000000000000000000000000000000000000000000000000000000060648201526084016108fe565b61212a838383612bf4565b612135600082611bd0565b73ffffffffffffffffffffffffffffffffffffffff8316600090815260036020526040812080546001929061216b908490613b0e565b909155505073ffffffffffffffffffffffffffffffffffffffff821660009081526003602052604081208054600192906121a690849061397b565b909155505060008181526002602052604080822080547fffffffffffffffffffffffff00000000000000000000000000000000000000001673ffffffffffffffffffffffffffffffffffffffff86811691821790925591518493918716917fddf252ad1be2c89b69c2b068fc378daa952ba7f163c4a11628f55a4df523b3ef91a4505050565b6000818060ff166000108015612246575060038160ff1611155b6122ac576040517f08c379a000000000000000000000000000000000000000000000000000000000815260206004820152601460248201527f72617269747920646f65736e277420657869737400000000000000000000000060448201526064016108fe565b60ff8084166000818152600b6020526040902054600a5461ffff909116927601000000000000000000000000000000000000000000009091041614156124765761246e6123b0826123aa601260009054906101000a900473ffffffffffffffffffffffffffffffffffffffff1673ffffffffffffffffffffffffffffffffffffffff1663313ce5676040518163ffffffff1660e01b815260040160206040518083038186803b15801561235e57600080fd5b505afa158015612372573d6000803e3d6000fd5b505050506040513d601f19601f82011682018060405250810190612396919061370c565b6123a190600a613a08565b61017790612cfa565b90612cfa565b601254604080517f313ce56700000000000000000000000000000000000000000000000000000000815290516124689273ffffffffffffffffffffffffffffffffffffffff169163313ce567916004808301926020929190829003018186803b15801561241c57600080fd5b505afa158015612430573d6000803e3d6000fd5b505050506040513d601f19601f82011682018060405250810190612454919061370c565b61245f90600a613a08565b6102ee90612cfa565b90611c70565b925050610e45565b600a5460ff85811675010000000000000000000000000000000000000000009092041614156126135761246e61255c826123aa601260009054906101000a900473ffffffffffffffffffffffffffffffffffffffff1673ffffffffffffffffffffffffffffffffffffffff1663313ce5676040518163ffffffff1660e01b815260040160206040518083038186803b15801561251157600080fd5b505afa158015612525573d6000803e3d6000fd5b505050506040513d601f19601f82011682018060405250810190612549919061370c565b61255490600a613a08565b602790612cfa565b601254604080517f313ce56700000000000000000000000000000000000000000000000000000000815290516124689273ffffffffffffffffffffffffffffffffffffffff169163313ce567916004808301926020929190829003018186803b1580156125c857600080fd5b505afa1580156125dc573d6000803e3d6000fd5b505050506040513d601f19601f82011682018060405250810190612600919061370c565b61260b90600a613a08565b60fa90612cfa565b611fb26126db612624607d84613993565b601254604080517f313ce56700000000000000000000000000000000000000000000000000000000815290516123aa9273ffffffffffffffffffffffffffffffffffffffff169163313ce567916004808301926020929190829003018186803b15801561269057600080fd5b505afa1580156126a4573d6000803e3d6000fd5b505050506040513d601f19601f820116820180604052508101906126c8919061370c565b6126d390600a613a08565b601990612cfa565b601254604080517f313ce56700000000000000000000000000000000000000000000000000000000815290516124689273ffffffffffffffffffffffffffffffffffffffff169163313ce567916004808301926020929190829003018186803b15801561269057600080fd5b6040805173ffffffffffffffffffffffffffffffffffffffff85811660248301528416604482015260648082018490528251808303909101815260849091019091526020810180517bffffffffffffffffffffffffffffffffffffffffffffffffffffffff167f23b872dd000000000000000000000000000000000000000000000000000000001790526118cf908590612d06565b600a805473ffffffffffffffffffffffffffffffffffffffff8381167fffffffffffffffffffffffff0000000000000000000000000000000000000000831681179093556040519116919082907f8be0079c531659141344cd1fd0a4f28419497f9722a3daafe3b4186f6b6457e090600090a35050565b818060ff16600010801561286b575060038160ff1611155b6128d1576040517f08c379a000000000000000000000000000000000000000000000000000000000815260206004820152601460248201527f72617269747920646f65736e277420657869737400000000000000000000000060448201526064016108fe565b60ff83166000908152600b602052604090205461ffff908116908316101561297b576040517f08c379a000000000000000000000000000000000000000000000000000000000815260206004820152603860248201527f4e4650733a206d696e746564204e46507320616d6f756e74206973206c61726760448201527f6572207468616e207468697320746f74616c206c696d6974000000000000000060648201526084016108fe565b5060ff919091166000908152600c6020526040902080547fffffffffffffffffffffffffffffffffffffffffffffffffffffffffffff00001661ffff909216919091179055565b6129cd848484611fba565b6129d984848484612e12565b6118cf576040517f08c379a000000000000000000000000000000000000000000000000000000000815260206004820152603260248201527f4552433732313a207472616e7366657220746f206e6f6e20455243373231526560448201527f63656976657220696d706c656d656e746572000000000000000000000000000060648201526084016108fe565b6060600f80546107ce90613b51565b606081612ab457505060408051808201909152600181527f3000000000000000000000000000000000000000000000000000000000000000602082015290565b8160005b8115612ade5780612ac881613b9f565b9150612ad79050600a83613993565b9150612ab8565b60008167ffffffffffffffff811115612b20577f4e487b7100000000000000000000000000000000000000000000000000000000600052604160045260246000fd5b6040519080825280601f01601f191660200182016040528015612b4a576020820181803683370190505b5090505b8415611fb257612b5f600183613b0e565b9150612b6c600a86613bd8565b612b7790603061397b565b60f81b818381518110612bb3577f4e487b7100000000000000000000000000000000000000000000000000000000600052603260045260246000fd5b60200101907effffffffffffffffffffffffffffffffffffffffffffffffffffffffffffff1916908160001a905350612bed600a86613993565b9450612b4e565b73ffffffffffffffffffffffffffffffffffffffff8316612c5c57612c5781600880546000838152600960205260408120829055600182018355919091527ff3f7a9fe364faab93b216da50a3214154f22a0a2b415b23a84c8169e8b636ee30155565b612c99565b8173ffffffffffffffffffffffffffffffffffffffff168373ffffffffffffffffffffffffffffffffffffffff1614612c9957612c998382613011565b73ffffffffffffffffffffffffffffffffffffffff8216612cbd57610ab8816130c8565b8273ffffffffffffffffffffffffffffffffffffffff168273ffffffffffffffffffffffffffffffffffffffff1614610ab857610ab882826131ec565b60006119878284613ad1565b6000612d68826040518060400160405280602081526020017f5361666545524332303a206c6f772d6c6576656c2063616c6c206661696c65648152508573ffffffffffffffffffffffffffffffffffffffff1661323d9092919063ffffffff16565b805190915015610ab85780806020019051810190612d86919061363e565b610ab8576040517f08c379a000000000000000000000000000000000000000000000000000000000815260206004820152602a60248201527f5361666545524332303a204552433230206f7065726174696f6e20646964206e60448201527f6f7420737563636565640000000000000000000000000000000000000000000060648201526084016108fe565b600073ffffffffffffffffffffffffffffffffffffffff84163b15613006576040517f150b7a0200000000000000000000000000000000000000000000000000000000815273ffffffffffffffffffffffffffffffffffffffff85169063150b7a0290612e899033908990889088906004016138b5565b602060405180830381600087803b158015612ea357600080fd5b505af1925050508015612ef1575060408051601f3d9081017fffffffffffffffffffffffffffffffffffffffffffffffffffffffffffffffe0168201909252612eee91810190613676565b60015b612fbb573d808015612f1f576040519150601f19603f3d011682016040523d82523d6000602084013e612f24565b606091505b508051612fb3576040517f08c379a000000000000000000000000000000000000000000000000000000000815260206004820152603260248201527f4552433732313a207472616e7366657220746f206e6f6e20455243373231526560448201527f63656976657220696d706c656d656e746572000000000000000000000000000060648201526084016108fe565b805181602001fd5b7fffffffff00000000000000000000000000000000000000000000000000000000167f150b7a0200000000000000000000000000000000000000000000000000000000149050611fb2565b506001949350505050565b6000600161301e84611521565b6130289190613b0e565b6000838152600760205260409020549091508082146130885773ffffffffffffffffffffffffffffffffffffffff841660009081526006602090815260408083208584528252808320548484528184208190558352600790915290208190555b50600091825260076020908152604080842084905573ffffffffffffffffffffffffffffffffffffffff9094168352600681528383209183525290812055565b6008546000906130da90600190613b0e565b60008381526009602052604081205460088054939450909284908110613129577f4e487b7100000000000000000000000000000000000000000000000000000000600052603260045260246000fd5b906000526020600020015490508060088381548110613171577f4e487b7100000000000000000000000000000000000000000000000000000000600052603260045260246000fd5b60009182526020808320909101929092558281526009909152604080822084905585825281205560088054806131d0577f4e487b7100000000000000000000000000000000000000000000000000000000600052603160045260246000fd5b6001900381819060005260206000200160009055905550505050565b60006131f783611521565b73ffffffffffffffffffffffffffffffffffffffff9093166000908152600660209081526040808320868452825280832085905593825260079052919091209190915550565b6060611fb2848460008585843b6132b0576040517f08c379a000000000000000000000000000000000000000000000000000000000815260206004820152601d60248201527f416464726573733a2063616c6c20746f206e6f6e2d636f6e747261637400000060448201526064016108fe565b6000808673ffffffffffffffffffffffffffffffffffffffff1685876040516132d991906137c2565b60006040518083038185875af1925050503d8060008114613316576040519150601f19603f3d011682016040523d82523d6000602084013e61331b565b606091505b509150915061332b828286613336565b979650505050505050565b60608315613345575081611987565b8251156133555782518084602001fd5b816040517f08c379a00000000000000000000000000000000000000000000000000000000081526004016108fe9190613942565b82805461339590613b51565b90600052602060002090601f0160209004810192826133b757600085556133fd565b82601f106133d057805160ff19168380011785556133fd565b828001600101855582156133fd579182015b828111156133fd5782518255916020019190600101906133e2565b5061340992915061340d565b5090565b5b80821115613409576000815560010161340e565b600067ffffffffffffffff8084111561343d5761343d613c4a565b604051601f85017fffffffffffffffffffffffffffffffffffffffffffffffffffffffffffffffe0908116603f0116810190828211818310171561348357613483613c4a565b8160405280935085815286868601111561349c57600080fd5b858560208301376000602087830101525050509392505050565b803573ffffffffffffffffffffffffffffffffffffffff811681146134da57600080fd5b919050565b6000602082840312156134f0578081fd5b611987826134b6565b6000806040838503121561350b578081fd5b613514836134b6565b9150613522602084016134b6565b90509250929050565b60008060006060848603121561353f578081fd5b613548846134b6565b9250613556602085016134b6565b9150604084013590509250925092565b6000806000806080858703121561357b578081fd5b613584856134b6565b9350613592602086016134b6565b925060408501359150606085013567ffffffffffffffff8111156135b4578182fd5b8501601f810187136135c4578182fd5b6135d387823560208401613422565b91505092959194509250565b600080604083850312156135f1578182fd5b6135fa836134b6565b9150602083013561360a81613c79565b809150509250929050565b60008060408385031215613627578182fd5b613630836134b6565b946020939093013593505050565b60006020828403121561364f578081fd5b815161198781613c79565b60006020828403121561366b578081fd5b813561198781613c87565b600060208284031215613687578081fd5b815161198781613c87565b6000602082840312156136a3578081fd5b813567ffffffffffffffff8111156136b9578182fd5b8201601f810184136136c9578182fd5b611fb284823560208401613422565b6000602082840312156136e9578081fd5b5035919050565b600060208284031215613701578081fd5b813561198781613cb5565b60006020828403121561371d578081fd5b815161198781613cb5565b6000806040838503121561373a578182fd5b823561351481613cb5565b60008060408385031215613757578182fd5b823561376281613cb5565b9150602083013561ffff8116811461360a578182fd5b60008151808452613790816020860160208601613b25565b601f017fffffffffffffffffffffffffffffffffffffffffffffffffffffffffffffffe0169290920160200192915050565b600082516137d4818460208701613b25565b9190910192915050565b600084516137f0818460208901613b25565b845190830190613804818360208901613b25565b7f2f000000000000000000000000000000000000000000000000000000000000009101908152835161383d816001840160208801613b25565b7f2f696e6465782e6a736f6e00000000000000000000000000000000000000000060019290910191820152600c0195945050505050565b60008251613886818460208701613b25565b7f4e4650732d4e46502e6a736f6e00000000000000000000000000000000000000920191825250600d01919050565b600073ffffffffffffffffffffffffffffffffffffffff8087168352808616602084015250836040830152608060608301526138f46080830184613778565b9695505050505050565b6020808252825182820181905260009190848201906040850190845b818110156139365783518352928401929184019160010161391a565b50909695505050505050565b6020815260006119876020830184613778565b600061ffff80831681851680830382111561397257613972613bec565b01949350505050565b6000821982111561398e5761398e613bec565b500190565b6000826139a2576139a2613c1b565b500490565b600181815b80851115613a0057817fffffffffffffffffffffffffffffffffffffffffffffffffffffffffffffffff048211156139e6576139e6613bec565b808516156139f357918102915b93841c93908002906139ac565b509250929050565b600061198760ff841683600082613a21575060016107b9565b81613a2e575060006107b9565b8160018114613a445760028114613a4e57613a6a565b60019150506107b9565b60ff841115613a5f57613a5f613bec565b50506001821b6107b9565b5060208310610133831016604e8410600b8410161715613a8d575081810a6107b9565b613a9783836139a7565b807fffffffffffffffffffffffffffffffffffffffffffffffffffffffffffffffff04821115613ac957613ac9613bec565b029392505050565b6000817fffffffffffffffffffffffffffffffffffffffffffffffffffffffffffffffff0483118215151615613b0957613b09613bec565b500290565b600082821015613b2057613b20613bec565b500390565b60005b83811015613b40578181015183820152602001613b28565b838111156118cf5750506000910152565b600181811c90821680613b6557607f821691505b60208210811415610e45577f4e487b7100000000000000000000000000000000000000000000000000000000600052602260045260246000fd5b60007fffffffffffffffffffffffffffffffffffffffffffffffffffffffffffffffff821415613bd157613bd1613bec565b5060010190565b600082613be757613be7613c1b565b500690565b7f4e487b7100000000000000000000000000000000000000000000000000000000600052601160045260246000fd5b7f4e487b7100000000000000000000000000000000000000000000000000000000600052601260045260246000fd5b7f4e487b7100000000000000000000000000000000000000000000000000000000600052604160045260246000fd5b8015158114611aea57600080fd5b7fffffffff0000000000000000000000000000000000000000000000000000000081168114611aea57600080fd5b60ff81168114611aea57600080fdfea2646970667358221220a2cdc59eb9948c77d94f75f406b6ea67acf93051ecb010f4102c5da899d0b7f964736f6c63430008040033",
  "linkReferences": {},
  "deployedLinkReferences": {}
}